:1006C9000102030700000000000302010201020108
:1006D90007000302010203020107000302010201EC
:1006E90007000000010700000000000000010201EE
:1006F90002030201070003020302010201070001CC
:1007090002010201020107000102010700000000C5
:1007190000010203020302030700030201020307A7
:10072900000000010203020102010700030203079E
:10073900000000000003020107000000000003029E
:10074900030203070000000102030203020107007C
:100759000302030201020307000102030201070069
:100769000000010201020107000000030700000068
:10077900000000000102010203070000000102015C
:10078900020102030700010203020307000000033C
:100799000201020102030700030201020302030727
:1007A900000302030201020107007F967F7F48458B
:1007B9004C4C4F574F524C440000000000000000C1
:1007C90000000000000000000000000000022004FA
:0C07D9004006600000F88F90B8DCEEF4E1
:1005420075B1B075B218758921538E7FE4F588753F
:100552008CF8758AF8D28C75A802F5B7F5B87F02C7
:10056200120B9E43A810E4F5957596FFF5D975DC3C
:100572004275F40375ECFF75FCFF75DD4275F503FA
:1005820075EDFF75FDFFF5E9F5F943D84075DA31F0
:1005920075DB3143A84043B8407591FFF59275C5AC
:1005A200E0C2017BFF7A0779B7120B3875551ED26C
:1005B200B4755709755601752100752201E4F5508D
:1005C200F552C203C206F5437544FFF5457546FF71
:1005D200AD44AC43FF1208AB1208A5E4F553F55441
:1005E2007868F608F608F608F6D205D204C2B3C255
:1005F20002C200FF745B2FF8E4F6EF9007B393FE9C
:1006020074642FF8A6060FBF04EA78607614E41823
:10061200F6D2AF30011DC201E5221522700215216A
:10062200E5224521700DF5217522C8120AFF5003FB
:10063200120A62E553D394004035786906E67002E7
:10064200180615532005031209A3D3E55A9400E5B1
:10065200599400401AE55A155A70021559E55A453F
:1006620059700C200503120BB0200403120BBFE5D6
:1006720054D394004010786B06E6700218061554A5
:090682002005031209A330002831
:10068B00858C08858A09D3E5099428E50894FB40F5
:10069B0017C200785FE6FF120924785FA607C2B382
:0806AB00200405E6FF120A0617
:1006B300200303020615C2031207E54003020615D1
:0606C300120036020615CC
:060B38008B0A8A0B890CF8
:100B3E00E4FFAB0AAA0BA90C120B85FE60147424F9
:100B4E002FF8A6060F7401250CF50CE4350BF50BEA
:080B5E0080E074242FF8E4F696
:010B6600226C
:100AFF00C2071556E556702E0557E557D394094092
:100B0F0007E4F557D207801E74472557F8E6FF70A4
:100B1F0006F557D207800F8F56E55730E004D2B451
:080B2F008002C2B4C207A20754
:010B3700229B
:100A62000555E555D3941E500874242555F8E670B3
:100A720003E4F55574242555F8E624BFFFE4FEEFA0
:100A820075F009A424C9F582E43406F583E5822EC3
:100A9200F582E43583F583E493FD74472EF8A605C9
:100AA2000EBE09DBC2B4E4F55774472557F8E6F5E4
:010AB20056ED
:010AB3002220
:03000B0002000EE2
:10000E00758CF8758AD0D201B202300204D2B3D206
:02001E000032AE
:100B9E00438E40EF9007E093F58DF58BD28E7598CE
:010BAE0050F6
:010BAF002223
:03002300020AB41A
:100AB400C0E0C083C082C0D0309819C298740025A9
:100AC40050F582E43400F583E599F0E55004541FB1
:100AD400F550D20330991BC2991551E551D39400B6
:100AE4004010055874202558F582E43400F583E05D
:0B0AF400F599D0D0D082D083D0E03242
:1007E500C207E552655070030208A2200667E4FEC1
:1007F500E55224FB541FFF2400F582E43400F58301
:10080500E0B455010EE55224FC541FFF2400F58287
:10081500E43400F583E0B4AA010EE55224FD541F2B
:10082500FF2400F582E43400F583E0B401010EEE07
:100835006403705FD206E55214541FFF2400F5824D
:10084500E43400F583E07863F6786CA652255254BB
:100855001F08F6803EE552786D667037C20618E6C9
:10086500FDE4FEFFEFC3786396501574002DF58205
:10087500E43400F583E02EFEED04541FFD0F80E403
:100885006306FF74002DF582E43400F583E0B506B8
:0F08950002D207E55204541FF5520207E7A207EB
:0108A4002231
:10003600786CE6FF2400F582E43400F583E0FE24C4
:10004600FE70030201E31470030202EF1470030250
:10005600039F14700302046F24046003020541EF3A
:1000660004541FF50A2400F582E43400F583E0F514
:100076000FE50A04541FF50A2400F582E43400F55E
:1000860083E0F50EE50A04541FF50A2400F582E420
:100096003400F583E0F50DD394164003750D1690E4
:1000A60000207455F0A374AAF0EF24FE541FF50A3D
:1000B6002400F582E43400F583E0900022F0A37476
:1000C60001F0E50D2404A3F0A37401F0A3E50FF0FD
:1000D600A3E50EF0A3E50DF0900026E0FE900025C6
:1000E600E02EFE900027E02E250DF50C750A09E599
:1000F6000E7036AE0F8E10F50BE50BC3950D50291D
:10010600A810E6FE7420250AF582E43400F583EE95
:10011600F07420250AF582E43400F583E0250CF519
:100126000C050A0510050B80D0E50E64017045AE7E
:100136000FEE751100F512E4F50BE50BC3950D50A6
:1001460033851282851183E0FE7420250AF582E448
:100156003400F583EEF07420250AF582E43400F5C8
:1001660083E0250CF50C050A0512E512700205114F
:10017600050B80C6E50EC394804042E4250FFDE5DD
:100186000E3480FCE4F50BE50BC3950D502F8D82E4
:100196008C83E493FE7420250AF582E43400F5830B
:1001A600EEF07420250AF582E43400F583E0250C90
:1001B600F50C050A0DBD00010C050B80CAE50CF413
:1001C600FE7420250AF582E43400F583EEF0E50A94
:1001D60004F551E4F558900020E0F59922EF045417
:1001E6001FF50A2400F582E43400F583E0F50FE5F7
:1001F6000A04541FF50A2400F582E43400F583E06E
:10020600F50EE50A04541FF50A2400F582E43400CD
:10021600F583E0F50DE50A04541FF50AE4F50BE550
:100226000E7029AE0F8E10F50BE50BC3950D501C05
:100236007400250AF582E43400F583E0A810F6E59B
:100246000A04541FF50A0510050B80DDE50E64014E
:100256007038AE0FEE751100F512E4F50BE50BC321
:10026600950D50267400250AF582E43400F583E0E6
:10027600851282851183F0E50A04541FF50A0512DA
:10028600E51270020511050B80D39000207455F01D
:10029600A374AAF0786CE624FE541FF50A2400F530
:1002A60082E43400F583E0900022F0A37401F0A309
:1002B6007404F0A37402F0A3E50FF0A3E50EF0A317
:1002C600E50BF0900026E0FE900025E02EFE900063
:1002D60027E02E250BF50CF4900029F075510AE461
:1002E600F558900020E0F59922EF04541FF50A24F2
:1002F60000F582E43400F583E0F50FE50A04541FA7
:10030600F50A2400F582E43400F583E0F50E850E47
:1003160043850F44E50A04541FF50A2400F582E4D8
:100326003400F583E0F50FE50A04541FF50A2400AE
:10033600F582E43400F583E0F50E850E45850F461B
:10034600AD44AC43E4FF1208AB8F0B1208A58F0B2C
:100356009000207455F0A374AAF0786CE624FE543D
:100366001FF50A2400F582E43400F583E0900022AC
:10037600F0A37401F0A304F0A304F0A3E50BF0903E
:100386000025E0250BF50CF4900027F0755108E4E4
:10039600F558900020E0F59922786CE604541FF594
:1003A6000A2400F582E43400F583E0F50FE50A043B
:1003B600541FF50A2400F582E43400F583E0F50EB7
:1003C6007861A60E08A60F18E6F55908E6F55AE56F
:1003D6000A04541FF50A2400F582E43400F583E08C
:1003E600F50FE50A04541FF50A2400F582E43400EB
:1003F600F583E0F50E786EA60E08A60F18E6FE0841
:10040600E6FF8E43F5448E45F546E47868F608F631
:1004160008F608F6EF4E7004D2058002C205AD4418
:10042600AC43E4FF1208AB1208A59000207455F007
:10043600A374AAF0786CE624FE541FF50A2400F58E
:1004460082E43400F583E0900022F0A37401F0A367
:10045600F0A37404F0F50CE50CF4A3F0755107E471
:10046600F558900020E0F59922786CE604541FF5C3
:100476000A2400F582E43400F583E0F50FE50A046A
:10048600541FF50A2400F582E43400F583E0F50EE6
:100496007861A60E08A60F18E6F55908E6F55AE59E
:1004A6000A04541FF50A2400F582E43400F583E0BB
:1004B600F50FE50A04541FF50A2400F582E434001A
:1004C600F583E0F50E786EA60E08A60F18E6FE0870
:1004D600E6FF8E43F5448E45F546E47868F608F661
:1004E60008F608F6EF4E7004D2048005C204E4F55F
:1004F60023AD44AC43E4FF1208AB1208A5900020DC
:100506007455F0A374AAF0786CE624FE541FF50A1D
:100516002400F582E43400F583E0900022F0A37411
:1005260001F0A3F0A37405F0F50CE50CF4A3F07547
:0B0536005107E4F558900020E0F59913
:010541002297
:0608A500AD46AC457F01E9
:0208AB008F13A9
:1008AD008C188D1985A014E5196013047020E513BB
:1008BD009007DA93F5157517037516FF8030E5135C
:1008CD009007DC93F5157517037516FF8020E51855
:1008DD00700AE5139007D693F5158008E513900778
:1008ED00D893F515E4F517C374FF9519F516E513AF
:1008FD009007DE9355144515F514F5A0E513700B0F
:10090D008517F48516EC8516FC80098517F5851677
:06091D00ED8516FDAF148C
:0109230022B1
:03003300020B6756
:100B670030DF02C2DF30D804C2D8055430D904C2FE
:0E0B7700D9055330DA02C2DA30DB02C2DB32BB
:1009A300C2077868E6FE08E6FF08E6FC08E6FD6F86
:1009B3007002EC6E6019D3ED9FEC9E400875450004
:1009C3007546FF80067543007544FFD2078024E512
:1009D30044F44543700B786EE6F54308E6F544D2DC
:1009E30007E546F44545700B786EE6F54508E6F5F0
:1009F30046D20730070C1208A5AD44AC43E4FF12FE
:020A030008AB3E
:010A050022CE
:0F0BB000D205E4FDFC7F011208ABE4FF0208ABA5
:02092400A90721
:10092600E4FBEB44E8F5C5E5C55410FAEA7007E5C3
:10093600C55410FA80F6C374039B245BF8A6C6530D
:10094600C5EF0BBB04DCE4FAE925E0F9E4FBEAC3F6
:1009560013FAE9C313F930E02374642BF8E6FF7841
:1009660060E62FFFE433FE745B2BF8E6C39FEE646C
:1009760080F8748098501F430208801A74642BF81C
:10098600E6FF7860E6FEC3EF9EFF745B2BF8E6C3D6
:0C0996009F50034302080BBB04B4AF02E7
:0109A2002232
:100A0600C207EF54066406601EE523703FEF20E13F
:100A16000AE4F545F5467523028008E4F543F544F6
:100A2600752301D2078025E4F523E5444543700B81
:100A3600786EE6F54308E6F544D207E54645457087
:100A46000B786EE6F54508E6F546D20730070C1238
:0B0A560008A5AD44AC43E4FF1208AB60
:010A61002272
:0F0BBF00D204E4FDFC7F011208ABE4FF0208AB97
:03000000020026D5
:0C002600787FE4F6D8FD75816F0205427A
:100B8500BB010689828A83E0225002E722BBFE026E
:090B9500E32289828A83E49322A1
:00000001FF
