:1006C600010203070000000000030201020102010B
:1006D60007000302010203020107000302010201EF
:1006E60007000000010700000000000000010201F1
:1006F60002030201070003020302010201070001CF
:1007060002010201020107000102010700000000C8
:1007160000010203020302030700030201020307AA
:1007260000000001020302010201070003020307A1
:1007360000000000000302010700000000000302A1
:10074600030203070000000102030203020107007F
:10075600030203020102030700010203020107006C
:10076600000001020102010700000003070000006B
:10077600000000000102010203070000000102015F
:10078600020102030700010203020307000000033F
:10079600020102010203070003020102030203072A
:1007A600000302030201020107007F967F7F48458E
:1007B6004C4C4F574F524C440000000000000000C4
:1007C60000000000000000000000000000022004FD
:0C07D6004006600000F88F90B8DCEEF4E4
:10053F0075B1B075B218758921538E7FE4F5887542
:10054F008CF8758AF8D28C75A802F5B7F5B87F02CA
:10055F00120B8E43A810E4F5957596FFF5D975DC4F
:10056F004275F40375ECFF75FCFF75DD4275F503FD
:10057F0075EDFF75FDFFF5E9F5F943D84075DA31F3
:10058F0075DB3143A84043B8407591FFF59275C5AF
:10059F00E0C2017BFF7A0779B4120B2875541ED283
:1005AF00B4755609755501752100752201E4F54F93
:1005BF00F551C203C206F5427543FFF5447545FF79
:1005CF00AD43AC42FF1208A81208A2E4F552F5534E
:1005DF007867F608F608F608F6D205D204C2B3C259
:1005EF0002C200FF745A2FF8E4F6EF9007B093FEA3
:1005FF0074632FF8A6060FBF04EA785F7614E41829
:10060F00F6D2AF30011DC201E5221522700215216D
:10061F00E5224521700DF5217522C8120AEF50030E
:10062F00120A03E552D394004035786806E670024B
:10063F00180615522005031209A0D3E5599400E5B9
:10064F00589400401AE559155970021558E5594547
:10065F0058700C200503120BA0200403120BAFE5FA
:10066F0053D394004010786A06E6700218061553AB
:09067F002005031209A030002837
:10068800858C08858A09D3E5099428E50894FB40F8
:1006980017C200785EE6FF120921785EA607C2B38A
:0806A800200405E6FF120A55CB
:1006B000200303020612C2031207E24003020612DD
:0606C000120036020612D2
:060B28008B0A8A0B890C08
:100B2E00E4FFAB0AAA0BA90C120B75FE601474231A
:100B3E002FF8A6060F7401250CF50CE4350BF50BFA
:080B4E0080E074232FF8E4F6A7
:010B5600227C
:100AEF00C2071555E555702E0556E556D3940940A6
:100AFF0007E4F556D207801E74462556F8E6FF70B8
:100B0F0006F556D207800F8F55E55630E004D2B464
:080B1F008002C2B4C207A20764
:010B270022AB
:100A03000554E554D3941E500874232554F8E67016
:100A130003E4F55474232554F8E624BFFFE4FEEF02
:100A230075F009A424C6F582E43406F583E5822E25
:100A3300F582E43583F583E493FD74462EF8A60529
:100A43000EBE09DBC2B4E4F55674462556F8E6F546
:010A5300554D
:010A5400227F
:03000B0002000EE2
:10000E00758CF8758AD0D201B202300204D2B3D206
:02001E000032AE
:100B8E00438E40EF9007DD93F58DF58BD28E7598E1
:010B9E005006
:010B9F002233
:03002300020AA42A
:100AA400C0E0C083C082C0D0309819C298740025B9
:100AB4004FF582E43400F583E599F0E54F04541FC3
:100AC400F54FD20330991BC2991550E550D39400C9
:100AD4004010055774202557F582E43400F583E06F
:0B0AE400F599D0D0D082D083D0E03252
:1007E200C207E551654F700302089F200667E4FEC9
:1007F200E55124FB541FFF2400F582E43400F58305
:10080200E0B455010EE55124FC541FFF2400F5828B
:10081200E43400F583E0B4AA010EE55124FD541F2F
:10082200FF2400F582E43400F583E0B401010EEE0A
:100832006403705FD206E55114541FFF2400F58251
:10084200E43400F583E07862F6786BA651255154C2
:100852001F08F6803EE551786C667037C20618E6CE
:10086200FDE4FEFFEFC3786296501574002DF58209
:10087200E43400F583E02EFEED04541FFD0F80E406
:100882006306FF74002DF582E43400F583E0B506BB
:0F08920002D207E55104541FF5510207E4A207F3
:0108A1002234
:10003600786BE6FF2400F582E43400F583E0FE24C5
:10004600FE70030201E31470030202EF1470030250
:10005600039F14700302046F2404600302053EEF3D
:1000660004541FF50A2400F582E43400F583E0F514
:100076000FE50A04541FF50A2400F582E43400F55E
:1000860083E0F50EE50A04541FF50A2400F582E420
:100096003400F583E0F50DD394164003750D1690E4
:1000A60000207455F0A374AAF0EF24FE541FF50A3D
:1000B6002400F582E43400F583E0900022F0A37476
:1000C60001F0E50D2404A3F0A37401F0A3E50FF0FD
:1000D600A3E50EF0A3E50DF0900026E0FE900025C6
:1000E600E02EFE900027E02E250DF50C750A09E599
:1000F6000E7036AE0F8E10F50BE50BC3950D50291D
:10010600A810E6FE7420250AF582E43400F583EE95
:10011600F07420250AF582E43400F583E0250CF519
:100126000C050A0510050B80D0E50E64017045AE7E
:100136000FEE751100F512E4F50BE50BC3950D50A6
:1001460033851282851183E0FE7420250AF582E448
:100156003400F583EEF07420250AF582E43400F5C8
:1001660083E0250CF50C050A0512E512700205114F
:10017600050B80C6E50EC394804042E4250FFDE5DD
:100186000E3480FCE4F50BE50BC3950D502F8D82E4
:100196008C83E493FE7420250AF582E43400F5830B
:1001A600EEF07420250AF582E43400F583E0250C90
:1001B600F50C050A0DBD00010C050B80CAE50CF413
:1001C600FE7420250AF582E43400F583EEF0E50A94
:1001D60004F550E4F557900020E0F59922EF045419
:1001E6001FF50A2400F582E43400F583E0F50FE5F7
:1001F6000A04541FF50A2400F582E43400F583E06E
:10020600F50EE50A04541FF50A2400F582E43400CD
:10021600F583E0F50DE50A04541FF50AE4F50BE550
:100226000E7029AE0F8E10F50BE50BC3950D501C05
:100236007400250AF582E43400F583E0A810F6E59B
:100246000A04541FF50A0510050B80DDE50E64014E
:100256007038AE0FEE751100F512E4F50BE50BC321
:10026600950D50267400250AF582E43400F583E0E6
:10027600851282851183F0E50A04541FF50A0512DA
:10028600E51270020511050B80D39000207455F01D
:10029600A374AAF0786BE624FE541FF50A2400F531
:1002A60082E43400F583E0900022F0A37401F0A309
:1002B6007404F0A37402F0A3E50FF0A3E50EF0A317
:1002C600E50BF0900026E0FE900025E02EFE900063
:1002D60027E02E250BF50CF4900029F075500AE462
:1002E600F557900020E0F59922EF04541FF50A24F3
:1002F60000F582E43400F583E0F50FE50A04541FA7
:10030600F50A2400F582E43400F583E0F50E850E47
:1003160042850F43E50A04541FF50A2400F582E4DA
:100326003400F583E0F50FE50A04541FF50A2400AE
:10033600F582E43400F583E0F50E850E44850F451D
:10034600AD43AC42E4FF1208A88F0B1208A28F0B34
:100356009000207455F0A374AAF0786BE624FE543E
:100366001FF50A2400F582E43400F583E0900022AC
:10037600F0A37401F0A304F0A304F0A3E50BF0903E
:100386000025E0250BF50CF4900027F0755008E4E5
:10039600F557900020E0F59922786BE604541FF596
:1003A6000A2400F582E43400F583E0F50FE50A043B
:1003B600541FF50A2400F582E43400F583E0F50EB7
:1003C6007860A60E08A60F18E6F55808E6F559E572
:1003D6000A04541FF50A2400F582E43400F583E08C
:1003E600F50FE50A04541FF50A2400F582E43400EB
:1003F600F583E0F50E786DA60E08A60F18E6FE0842
:10040600E6FF8E42F5438E44F545E47867F608F636
:1004160008F608F6EF4E7004D2058002C205AD4319
:10042600AC42E4FF1208A81208A29000207455F00E
:10043600A374AAF0786BE624FE541FF50A2400F58F
:1004460082E43400F583E0900022F0A37401F0A367
:10045600F0A37404F0F50CE50CF4A3F0755007E472
:10046600F557900020E0F59922786BE604541FF5C5
:100476000A2400F582E43400F583E0F50FE50A046A
:10048600541FF50A2400F582E43400F583E0F50EE6
:100496007860A60E08A60F18E6F55808E6F559E5A1
:1004A6000A04541FF50A2400F582E43400F583E0BB
:1004B600F50FE50A04541FF50A2400F582E434001A
:1004C600F583E0F50E786DA60E08A60F18E6FE0871
:1004D600E6FF8E42F5438E44F545E47867F608F666
:1004E60008F608F6EF4E7004D2048002C204AD434B
:1004F600AC42E4FF1208A81208A29000207455F03E
:10050600A374AAF0786BE624FE541FF50A2400F5BE
:1005160082E43400F583E0900022F0A37401F0A396
:10052600F0A37405F0F50CE50CF4A3F0755007E4A0
:08053600F557900020E0F59953
:01053E00229A
:0608A200AD45AC447F01EE
:0208A8008F13AC
:1008AA008C188D1985A014E5196013047020E513BE
:1008BA009007D793F5157517037516FF8030E51362
:1008CA009007D993F5157517037516FF8020E5185B
:1008DA00700AE5139007D393F5158008E51390077E
:1008EA00D593F515E4F517C374FF9519F516E513B5
:1008FA009007DB9355144515F514F5A0E513700B15
:10090A008517F48516EC8516FC80098517F585167A
:06091A00ED8516FDAF148F
:0109200022B4
:03003300020B5766
:100B570030DF02C2DF30D804C2D8055330D904C20F
:0E0B6700D9055230DA02C2DA30DB02C2DB32CC
:1009A000C2077867E6FE08E6FF08E6FC08E6FD6F8A
:1009B0007002EC6E6019D3ED9FEC9E400875440008
:1009C0007545FF80067542007543FFD2078024E518
:1009D00043F44542700B786DE6F54208E6F543D2E4
:1009E00007E545F44544700B786DE6F54408E6F5F7
:1009F00045D20730070C1208A2AD43AC42E4FF1207
:020A000008A844
:010A020022D1
:0F0BA000D205E4FDFC7F011208A8E4FF0208A8BB
:02092100A90724
:10092300E4FBEB44E8F5C5E5C55410FAEA7007E5C6
:10093300C55410FA80F6C374039B245AF8A6C65311
:10094300C5EF0BBB04DCE4FAE925E0F9E4FBEAC3F9
:1009530013FAE9C313F930E02374632BF8E6FF7845
:100963005FE62FFFE433FE745A2BF8E6C39FEE6471
:1009730080F8748098501F430208801A74632BF820
:10098300E6FF785FE6FEC3EF9EFF745A2BF8E6C3DB
:0C0993009F50034302080BBB04B4AF02EA
:01099F002235
:100A5500C207EF540664066014EF20E107E4F5448D
:100A6500F5458005E4F542F543D2078022E5434587
:100A750042700B786DE6F54208E6F543D207E54589
:100A85004544700B786DE6F54408E6F545D2073028
:0E0A9500070C1208A2AD43AC42E4FF1208A801
:010AA3002230
:0F0BAF00D204E4FDFC7F011208A8E4FF0208A8AD
:03000000020026D5
:0C002600787FE4F6D8FD75816E02053F7E
:100B7500BB010689828A83E0225002E722BBFE027E
:090B8500E32289828A83E49322B1
:00000001FF
