:2000000002010C02003000000000020200496000C2001C0200A600004200C80200D8000088
:200020002100D8080600120095808D1290016000C0E0C0D0053AE540F53BE541F53CC20322
:20004000D2B4D2B5D0D0D0E032C0E0C0D0758AF0758CD80537E537B4644775370020000C8A
:200060001539E539B4003AD2000200A12001121538B2B4E538B40009D201C2B4D28E755A79
:20008000170543E543B41E07E542600302030DE543B43C0D7543000542E542B43C0375426F
:2000A00000D0D0D0E032C0E0C0D0E53FC32440B4640040069464F53F054105410541E541C1
:2000C000B46400400E9464F5410540E540B4020375360BD0D0D0E032C0E0C0D0758BB075DC
:2000E0008D3C055BE55BB55A05C2B0020107400BB4280DD2B0755B00020107D2B0020107EB
:20010000C2B04003755A00D0D0D0E03275815F12012620000B793912016E12036B02011258
:20012000D28E02017C2279367A22770009DAFB752000D201D203753906753805755A18751F
:20014000360A75B00C75A00012014C22758901758AF0758CD8758BB0758D3CD28CC28ED263
:20016000AFD2A9D2ABD2A8D288D2AAD28A2278307A06E79003B393F608DAF7221201AA2054
:2001800003FAA2B240F6C2B4C2B5E540B4040302019A50061201E702017CC201120267D28F
:2001A00003D28E755A1702028F22E5805407B407030201CEB4030AC2A7D2A61201D1C2A604
:2001C00022B4060AD2A7D2A61201D1C2A622C2A622755A1AA28140F9E536B40A06755A1845
:2001E0000201E6755A1422C28EC2A6E53C2453F8C3E5412464953CB4640040029464F675CA
:20020000F00284253CB4640040049464053BF53CE53A1475F002A4A84828F8E53BF608E5F1
:200220003CF6C2B0C2B1C2A6C28E12023EC2B1D2B0D28ED203227E02120308DEFB221202A5
:200240004D7D037E8F12036BDEFBDDF722E53B75F00A84F54485F045E53C75F00A84F54620
:2002600085F04712039722C28EC2A6D2B1D2B0120236C2B0C2B1C2A6D2B5D2B4C28E793892
:2002800012016E20010612036B02027ED28E22D28E755A141202AFA28150722006F6A28603
:2002A00040F21202C7A28650F9D20602029422A28350041202F722A2857E4F120308DEFB9E
:2002C00050041202E62222C28ED2A7D2A6120308D28E755A267E3F120308DEFBA28650E7C7
:2002E000755A14C2A622755A1EC2A7D2A6A28350F8C2A6755A1722755A1ED2A7D2A6A285E1
:2003000050E7C2A6755A23227FFFDFFE2275A80075A800C2A6C2B0C2A6C2B0D2B412032FF5
:20032000120343794412039712036B020317221203C3500D1203C350081203DD1203C340CF
:20034000FB2222E559601E784675F002A428F8E675F00A84F54485F0450875F00AE684F517
:200360004685F04722784202034F2278307A067C00E612037A080CDAF8227B08C29333926B
:2003800092C294000000D294000000DBF18C90D293120308C29322784479307A04E69003D2
:2003A000B393F70809DAF6E53A9003B393F535753400223F065B4F666D7D077F6F777C39D2
:2003C0005E79717558FE7904855890E590B5580BE55823F558D9F1C30203DCD322E55875D1
:2003E00090F0B4FE1FD29100A291400675590E020464D292A292400675590702046475599F
:200400000F020464B4FD1ED290A2904006755902020464D292A292400675590602046475EF
:200420005909020464B4FB1ED290A2904006755901020464D291A2914006755904020464F8
:20044000755908020464D290A2904006755900020464D291A2914006755903020464755965
:05046000050204642206
:00000001FF
