:2000000002010C02003000000000020200496000C2001C0200A600004200C80200D8000088
:200020002100D8080600120095808D1290016000C0E0C0D0053AE540F53BE541F53CC20322
:20004000D2B4D2B5D0D0D0E032C0E0C0D0758AF0758CD80537E537B4644775370020000C8A
:200060001539E539B4003AD2000200A12001121538B2B4E538B40009D201C2B4D28E755A79
:20008000170543E543B41E07E5426003020311E543B43C0D7543000542E542B43C0375426B
:2000A00000D0D0D0E032C0E0C0D0E53FC32440B4640040069464F53F054105410541E541C1
:2000C000B46400400E9464F5410540E540B4020375360BD0D0D0E032C0E0C0D0758BB075DC
:2000E0008D3C055BE55BB55A05C2B0020107400BB4280DD2B0755B00020107D2B0020107EB
:20010000C2B04003755A00D0D0D0E03275815F12012620000B793912016E12036F02011254
:20012000D28E02017C2279367A22770009DAFB752000D201D203753906753805755A18751F
:20014000360A75B00C75A00012014C22758901758AF0758CD8758BB0758D3CD28CC28ED263
:20016000AFD2A9D2ABD2A8D288D2AAD28A2278307A06E79003B793F608DAF7221201AA2050
:2001800003FAA2B240F6C2B4C2B5E540B4040302019A50061201E702017CC201120267D28F
:2001A00003D28E755A1702028F22E5805407B407030201CEB4030AC2A7D2A61201D1C2A604
:2001C00022B4060AD2A7D2A61201D1C2A622C2A622755A1AA28140F9E536B40A06755A1845
:2001E0000201E6755A1422C28EC2A6E53C2453F8C3E5412464953CB4640040029464F675CA
:20020000F00284253CB4640040049464053BF53CE53A1475F002A4A84828F8E53BF608E5F1
:200220003CF6C2B0C2B1C2A6C28E12023EC2B1D2B0D28ED203227E0212030CDEFB221202A1
:200240004D7D037E8F12036FDEFBDDF722E53B75F00A84F54485F045E53C75F00A84F5461C
:2002600085F04712039B22C28EC2A6D2B1D2B0120236C2B0C2B1C2A6D2B5D2B4C28E79388E
:2002800012016E20010612036F02027ED28E22D28E755A147D057EFF12030CDEFBDDF7120C
:2002A00002BAA281506B2006F6A28640F21202D2A28650F9D20602029F22A28350041202AD
:2002C000FB22A2857E4F12030CDEFB50041202EA2222D2A7D2A6755A1E7E3F12030CDEFBE8
:2002E000A28650EE755A17C2A622755A1EC2A7D2A6A28350F8C2A6755A1722755A1ED2A717
:20030000D2A6A28550E7C2A6755A23227FFFDFFE2275A80075A800C2A6C2B0C2A6C2B0D24E
:20032000B4120333120347794412039B12036F02031B221203C7500D1203C750081203E1CF
:200340001203C740FB2222E559601E784675F002A428F8E675F00A84F54485F0450875F064
:200360000AE684F54685F0472278420203532278307A067C00E612037E080CDAF8227B0814
:20038000C293339292C294000000D294000000DBF18C90D29312030CC29322784479307A31
:2003A00004E69003B793F70809DAF6E53A9003B793F535753400223F065B4F666D7D077FE8
:2003C0006F777C395E79717558FE7904855890E590B5580BE55823F558D9F1C30203E0D306
:2003E00022E5587590F0B4FE1FD29100A291400675590E020468D292A292400675590702FD
:20040000046875590F020468B4FD1ED290A2904006755902020468D292A29240067559068C
:20042000020468755909020468B4FB1ED290A2904006755901020468D291A291400675597B
:2004400004020468755908020468D290A2904006755900020468D291A29140067559030221
:09046000046875590502046822C4
:00000001FF
